:020000040800F2
:1000000000090020B9740008616C0008636C0008E6
:10001000656C0008676C0008696C0008000000004F
:100020000000000000000000000000006B6C0008F1
:100030006D6C0008000000006F6C0008716C000817
:100040004B7500084F750008537500085775000878
:100050005B7500085F750008637500086775000828
:100060006B7500086F7500087375000877750008D8
:100070007B7500087F750008837500088775000888
:100080008B7500088F750008937500089775000838
:100090009B7500089F750008A3750008A7750008E8
:1000A000AB750008AF750008B3750008B775000898
:1000B000796C0008BB750008BF750008C37500089F
:1000C000C7750008CB750008CF750008D375000808
:1000D000D7750008DB750008836C0008DF75000821
:1000E000E3750008E7750008EB750008EF75000878
:1000F000F3750008F7750008FB750008FF75000828
:1001000003760008077600080B7600080F760008D3
:1001100013760008177600081B7600081F76000883
:1001200023760008277600082B7600082F76000833
:10013000F8B504000D000026002C06D1DFF8400AB7
:1001400001F020F95FF0FF3010E02A002100DFF815
:10015000340A01F0D2F90700AF4206D0DFF8280ACE
:1001600001F010F95FF0FF3000E03800F2BDF8B5A3
:100170000400002C06D1DFF8140A01F003F95FF047
:10018000FF300BE008250026270032002900380048
:1001900001F010FAFF20207060700020F2BD2DE900
:1001A000F84F04000D00002C06D1DFF8E40901F03F
:1001B000E9F85FF0FF301DE035260027DFF8D4892D
:1001C00018F167093A003100484601F0F3F9A946F1
:1001D000A24618F1690B4A465146584601F05AFAB0
:1001E000A8F89650012088F8680001F0C5FCC8F80E
:1001F00098000020BDE8F28F2DE9F84304000D00BF
:100200001600002C03D0002D01D0002E06D1DFF8FF
:100210002C0D01F0B7F85FF0FF3015E0207810F0FA
:10022000010000280FD0112029782944487028782F
:10023000401C28700B2714F10108B1463A004146D2
:10024000484601F027FA0020BDE8F2832DE9F0418D
:1002500004000D0000265FF00008002C01D0002DE6
:1002600006D1DFF8340901F08DF85FF0FF3031E09E
:1002700001F082FC07000B222100280001F05AFD4A
:10028000002805D0DFF8140901F07CF801200600F1
:100290000D2214F10B0115F10B0001F04BFD0028AC
:1002A0000DD0DFF8E00C0068381A41F27071884216
:1002B00005D3DFF88C0C01F065F801200600300052
:1002C00040B2012804D101F057FCDFF8B81C0860E7
:1002D000300040B2BDE8F0812DE9F04705000C0088
:1002E000002D01D0002C06D1DFF89C0C01F04AF85B
:1002F0005FF0FF3013E00B262F00A04632003900DC
:10030000404601F0C7F95FF00D0815F10B0914F133
:100310000B0A42464946504601F0BCF90020BDE8B0
:10032000F0872DE9F14F82B00C0017001D000C9EE4
:1003300020788DF80000002C03D0002D01D0002E75
:1003400006D1DFF8480C01F01DF85FF0FF3065E0E2
:100350000298002861D15FF013095FF0000ADFF80E
:10036000348818F19C000190DDF804B052464946EB
:10037000584601F01FF99DF80000012804D002281A
:1003800010D0052828D048E018F580720199601C2B
:10039000FFF732FF012088F8000000200500002050
:1003A00030603AE018F1E809494618F58C70FFF71B
:1003B00093FF00280DD15FF0180815F1010A42469D
:1003C0004946504601F066F9032028701920306034
:1003D00023E05FF0FF3021E0B7F1010914F1010AD9
:1003E00018F12E0B4A465146584601F053F9781E33
:1003F000C8F85B00102098F89C10414481F89D00DB
:1004000098F89C00401C88F89C00032088F80000A5
:100410000020050000203060FFE70020BDE8FE8FCF
:100420002DE9F24F9AB0050014001E000020029042
:1004300000275FF000085FF000090DF10C0A1A9820
:10044000002806D1DFF8480B00F09CFF5FF0FF307A
:1004500083E03000C0B2012809D1287A8046C34623
:100460005FFA8BFB1BF1060B14EB0B0B01E014F195
:10047000050B5B469BB24246D2B22100DFF8140B5B
:1004800000F080FFFF218AF800101AF101000170CE
:10049000401C594689B2090A0170401C80F800B01E
:1004A000401C2979491C0170401C69790170401C6D
:1004B00000210170401C067010F1010A5FF008096C
:1004C0003000C0B201281ED18AF800801AF1010A5A
:1004D00019F10109CDF800904746FFB215F1090066
:1004E000019003A8009900EB01093A0001994846E0
:1004F00001F0D0F8DDF800904046C0B210EB0909D9
:100500004046C0B28244002C0AD001941A98009050
:1005100003A800EB0907019A0099380001F0BAF826
:10052000594689B2091D03A801F038FC03A95A46AF
:1005300092B21144C870594689B2091D03A801F04E
:1005400084FB0700002F07D53900DFF8500A00F0C0
:1005500019FF7FF0010000E000201BB0BDE8F08F24
:100560002DE9F84789B005000C0016000027002C83
:1005700006D1DFF8240A00F005FF5FF0FF303BE012
:100580006846FFF7F4FD05208DF80400DFF8040647
:10059000D0F85F108DF80510D0F85F10491CC0F836
:1005A0005F108DF808501E2001F00EFCADF802001F
:1005B000B046A1460DF1090A42464946504601F0AF
:1005C00069F82221684601F0E9FB8DF8210022211B
:1005D000684601F03AFB8246BAF1000F07D5514652
:1005E000DFF81C0A00F0CEFE7FF0010004E02221BB
:1005F0006846FFF7D4FD50460AB0BDE8F0872DE904
:10060000F047050001F0B8FA0600DFF8887517F525
:100610008C7421002800FFF719FE012819D1DFF89A
:10062000800900F0AFFE17F1E80841462800FFF707
:1006300053FE002804D1182241460420FFF790FF02
:100640005FF01808A946A24642464946504601F0C6
:1006500021F8DFF85009B6FBF0F100FB116000282B
:100660001ED1DFF84489D8F80000B04218D0DFF876
:10067000940900F087FEE83739002800FFF72CFEC8
:10068000002804D1182239000420FFF769FF182739
:10069000A9463A004946200000F0FCFFC8F8006077
:1006A000BDE8F0872DE9F64F83B005000024002057
:1006B0008DF801005FF000095FF0000A0026039F3B
:1006C0005FF00008002D05D00398002802D00498A0
:1006D000002806D1DFF8300900F054FE5FF0FF304B
:1006E000B6E0280000F076FE8DF802009DF80200CA
:1006F000002802D15FF0FF30AAE05FF0000A9DF809
:100700000200824566DA01226946280000F090FE68
:100710000400002C5BD0DFF8F49899F80000FF2863
:1007200022D19DF80000FF281ED1DFF8E4180878D8
:10073000002809D1FF20387078700220DFF8D42813
:1007400010800120087039E0DFF8C81808880528F3
:1007500034DB0888320092B290422FD0FF203870EC
:1007600078700220088029E099F80000FF2803D162
:100770009DF80000552821D0DFF894080078012862
:100780001CD1DFF890B89DF80000BBF80010785439
:10079000BBF80000401CABF80000BBF800000528C7
:1007A0000CDBB846B8F8020001F00EFB001D060095
:1007B000BBF80000310089B288420BD09DF80000E0
:1007C00089F80000DFF850080178491C01701AF11F
:1007D000010A94E7DFF83C98B9F80000052836DBF9
:1007E000B9F80000310089B2884230D1B9F8001060
:1007F000380001F0D3FA8DF80100B9F80000384450
:1008000010F8010C9DF8011088421DD1300080B213
:1008100002900197DDF80CB0029A0199584600F059
:1008200039FF049806800020DFF8E41708700020E4
:10083000A9F800000020DFF8E01708700020DFF8BA
:10084000CC170870002003E07FF0010000E00120D9
:1008500005B0BDE8F08F70B50024CE4E96F8680064
:10086000002816D0DFF8B40700F08CFDB6F896101B
:1008700016F1690001F0E9F90500B6F89600854225
:1008800003D0DFF8480A00F07DFD01F075F9C6F8E5
:10089000980070BD2DE9F0410400BE4810F16905D3
:1008A000002C05D1BA4800F06DFD5FF0FF300EE07E
:1008B0002979491C2279914208D13526002710F167
:1008C00067083A003100404600F074FE0020BDE8A1
:1008D000F0812DE9FF4104000025002C06D1DFF84E
:1008E000400700F04FFD5FF0FF3025E008262700AD
:1008F000E84632003900404600F0CCFE9DF8040086
:10090000401C8DF80400052001F05EFAADF80200ED
:100910000921684601F042FA8DF80800092168466D
:1009200001F093F98046B8F1000F04D54146DFF895
:10093000D00600F027FD404604B0BDE8F08170B558
:10094000944C94F86800012825D194F86700022897
:1009500019DA01F011F9D4F89810401AC9281AD3FD
:1009600001F00AF994F86730D4F898200100DFF814
:10097000640900F007FDFFF76EFF94F86700401C64
:1009800084F8670007E03525002667343200290027
:10099000200000F00FFE70BD2DE9F84FA6B0040056
:1009A00000200890002C06D1DFF82C0900F0EAFCAA
:1009B0005FF0FF307AE009A8FFF7D9FB02208DF83D
:1009C000280060798DF8290008200790DFF80C09CD
:1009D00006900BAD079A0699280000F05BFE0820F0
:1009E0000590DFF8FC0804900DAD059A04992800E5
:1009F00000F050FE08200390DFF8E808029011ADE7
:100A0000039A0299280000F045FE08200190DFF8C3
:100A1000D80800900FAD019A0099280000F03AFE26
:100A20002025DFF8C86813AF2A003100380000F035
:100A300031FE2027DFF8B8880DF176093A004146EB
:100A4000484600F027FE5FF008095FF0000A0DF14C
:100A50006E0B52464946584600F0ACFD9DF87500B5
:100A60008DF875009DF8750050F002008DF8750046
:100A7000002001F0A9F9ADF86C006F2001F0A4F995
:100A8000ADF82600732109A801F088F98DF89600C9
:100A9000732109A801F0D9F88346BBF1000F04D5F2
:100AA0005946DFF85C0500F06DFC584627B0BDE8FC
:100AB000F08FFEB504000D000026002C06D1DFF8F3
:100AC000340800F05FFC5FF0FF3022E06846FFF77B
:100AD0004EFB12208DF8040060798DF80500062089
:100AE00001F072F9ADF802008DF808500A2168464D
:100AF00001F054F98DF809000A21684601F0A5F8C3
:100B00000700002F04D53900DFF8F40400F03AFCA8
:100B10003800FEBD2DE9F84304002500002C06D165
:100B2000DFF8D40700F02EFC5FF0FF3026E00B2644
:100B300015F10807DFF85C8008F23119320039003E
:100B4000484600F0A7FDB8F8310101F03DF9A8F8DA
:100B50003101D8F8390101F046F9C8F839010E2001
:100B600098F8C210414481F8C30098F8C200401CB4
:100B700088F8C200042088F800000020BDE8F28355
:100B8000F46F0008A804002048710008C86D000830
:100B900078720008D4000020786E000864710008A4
:100BA00010B500F0E9FF040000F0E6FF001B40F282
:100BB00059218842F8D300F0E2FF10BD38B5040097
:100BC000002C06D1DFF8340700F0DCFB5FF0FF30CB
:100BD000B2E1208901F0F8F82081DFF82457288855
:100BE000C0F3800080B22189C1F3800189B28842BC
:100BF00060D02089C0F3800080B200282DD0207AF8
:100C000010F00100002810D0DFF8F806002190F85D
:100C1000AF20024482F8B01090F8AF10491C80F861
:100C2000AF10DFF8E40600F0ADFB2089C0F3400010
:100C300080B200283ED0DFF8CC06012190F8AF202A
:100C4000024482F8B01090F8AF10491C80F8AF1041
:100C5000DFF8B80600F096FB2CE0207A10F00100D7
:100C6000002810D0DFF89C06002190F8AF20024445
:100C700082F8B01090F8AF10491C80F8AF10DFF880
:100C8000880600F07FFB2089C0F3400080B2002876
:100C900010D0DFF87006022190F8AF20024482F8ED
:100CA000B01090F8AF10491C80F8AF10DFF8600664
:100CB00000F068FB2888C0F3C00080B22189C1F32E
:100CC000C00189B2884230D02089C0B2C008C0B209
:100CD000298860F3C30129802089C0F3C00080B255
:100CE000002811D0DFF81C06032190F8AF20024441
:100CF00082F8B01090F8AF10491C80F8AF10DFF800
:100D0000140600F03FFB10E0DFF8F805042190F82E
:100D1000AF20024482F8B01090F8AF10491C80F860
:100D2000AF10DFF8F40500F02DFB2888C0F30010A9
:100D300080B22189C1F3001189B2884230D0208964
:100D4000C0B20009C0B2298860F30411298020894B
:100D5000C0F3001080B2002811D0DFF8A8050521EB
:100D600090F8AF20024482F8B01090F8AF10491C00
:100D700080F8AF10DFF8A40500F004FB10E0DFF806
:100D80008405062190F8AF20024482F8B01090F854
:100D9000AF10491C80F8AF10DFF8840500F0F2FABC
:100DA0002888C0F3401080B22189C1F3401189B274
:100DB000884230D02089C0B24009C0B2298860F38F
:100DC000451129802089C0F3401080B2002811D03D
:100DD000DFF83005072190F8AF20024482F8B01008
:100DE00090F8AF10491C80F8AF10DFF8380500F01C
:100DF000C9FA10E0DFF80C05082190F8AF20024492
:100E000082F8B01090F8AF10491C80F8AF10DFF8EE
:100E1000180500F0B7FA2888C0F3C02080B22189F5
:100E2000C1F3C02189B288422FD0208980B2C00A84
:100E3000298860F3CB2129802089C0F3C02080B2AB
:100E4000002811D0DFF8BC040B2190F8AF20024439
:100E500082F8B01090F8AF10491C80F8AF10DFF89E
:100E6000CC0400F08FFA10E0DFF898040C2190F821
:100E7000AF20024482F8B01090F8AF10491C80F8FF
:100E8000AF10DFF8AC0400F07DFA2888C0F3003022
:100E900080B22189C1F3003189B288422FD02089E4
:100EA00080B2000B298860F30C3129802089C0F3BF
:100EB000003080B2002811D0DFF84804092190F8F2
:100EC000AF20024482F8B01090F8AF10491C80F8AF
:100ED000AF10DFF8600400F055FA10E0DFF82404EA
:100EE0000A2190F8AF20024482F8B01090F8AF10B9
:100EF000491C80F8AF10DFF8400400F043FADFF837
:100F000004540D2095F8AF10294481F8B00095F8ED
:100F1000AF00401C85F8AF00208980B2000A10F0B5
:100F2000070085F8300195F83011DFF8100400F063
:100F300029FA02202870002032BD0000F46D00085C
:100F40009072000870B5DFF8F8035A210160DFF8ED
:100F5000F413C16000F02AFA002804D1DFF8E80396
:100F600000F010FA03E0DFF8E40300F00BFA4FF4AE
:100F7000BF740025DFF88C632A002100300000F0E8
:100F800019FB70BDE4040020AC6C0008DC6C0008A8
:100F9000A8720008A06E0008C86E0008C0720008A1
:100FA000D8720008C0270900E80400202DE9F843A2
:100FB00004002500002C06D1DFF8940300F0E2F9CC
:100FC0005FF0FF301AE0412615F10807DFF834839F
:100FD00008F23D1932003900484600F05BFB0F2053
:100FE00098F8D510414481F8D60098F8D500401CF7
:100FF00088F8D500052088F800000020BDE8F283BD
:1010000080710008F07200080C6D0008FE040020DA
:10101000FD040020F8040020FF04002014700008E4
:10102000206E00082DE9F04F9BB004005FF0000A2D
:101030005FF000080020ADF80400002002900025B9
:10104000002003900026002C06D1DFF8080300F0F2
:1010500099F95FF0FF3035E1FFF771FCDFF8A492FA
:1010600019F1010B01AA5946DFF8D402FFF71AFB68
:101070000700380040B2002840F0A480DFF8D80212
:1010800000F080F900F078FD0100BDF80420DFF8E1
:10109000CC0200F077F9002080464046BDF80410ED
:1010A00080B288420AD2404680B248444178DFF894
:1010B000B00200F067F918F10108EEE784A000F033
:1010C00061F95D46287901281AD003281CD006282A
:1010D00047D007283AD00A2843D00C2841D00D2801
:1010E00038D00F2841D0112848D0142847D01628CE
:1010F00037D018284AD0222852D02A2831D059E097
:101100002800FFF749FC6DE0EA79A979954800F0DD
:1011100039F902A8009004ABBDF80420300080B279
:10112000121A093A300080B2484410F109010398BC
:10113000FFF7F7F8002808D1EB79029A04A92800F4
:10114000FFF76EF9884800F01DF94BE02800FFF723
:10115000C0FB47E02800FFF7BCFB2800FFF72EFD8F
:1011600040E02800FFF796FB3CE02800FFF7B1FBCA
:101170007E4800F007F9FFF713FD33E032E0280066
:10118000FFF788FB7A4800F0FDF82BE02800FFF716
:1011900081FB2800FFF7BEFC764800F0F3F821E061
:1011A0002800FFF777FB2800FFF700FF724800F0E8
:1011B000E9F817E002212800FFF77BFC6F4800F0F8
:1011C000E1F80FE038007FF0010140B2884209D118
:1011D00001215846FFF76DFC694800F0D3F87FF015
:1011E00001006FE099F80000012807D066D30328BA
:1011F0002ED018D305284CD036D35FE0002089F8D4
:10120000000019F19C0A182219F58071504600F06F
:10121000B1FA5FF013095FF0000B5A464946504699
:1012200000F0C8F94AE0002089F8000019F1AF0A7F
:10123000012219F59871504600F09CFA5FF01309ED
:101240005FF0000B5A464946504600F0B3F935E0CE
:10125000002089F80000D9F85B2019F12E0119F15E
:101260009C0000F087FA29E0002089F8000019F1BD
:10127000C20B0C2209F23111584600F07BFA5FF0E4
:1012800013095FF0000A52464946584600F092F9A9
:1012900014E0002089F8000019F1D50B412209F271
:1012A0003D11584600F066FA5FF041095FF0000A10
:1012B00052464946584600F07DF9FFE72000FFF707
:1012C0009EF900201BB0BDE8F08F000008730008F5
:1012D0000A000000F06E00083C6D0008D47400089D
:1012E000E0740008EC740008F8740008686F0008E7
:1012F0008C6F00084C6E0008DC7300086C6D0008F1
:10130000FA040020D4000020347000089C7100080A
:10131000B8710008547000087470000894700008D8
:10132000B06F0008D4710008B4700008F0710008B4
:10133000D47000080C720008287200086874000855
:10134000A804002054020020F07300080474000870
:1013500078740008186F0008187400082C740008CE
:10136000247500088874000804750008407400089B
:10137000F4700008207300084472000838730008F5
:10138000507300080EB4C0B5024603A800210190B6
:10139000009101AB0121044878440C3000F040FD7D
:1013A00006BC5DF810FB00BFC15F00000100002912
:1013B00002D15FF0FF3004E0C8684860C868886008
:1013C000002070470100002902D15FF0FF3000E0EB
:1013D0000868704710B50400002C02D15FF0FF30A0
:1013E00014E06068A168884201D100200EE06068C6
:1013F000A168884203D2A0686168401A06E0200014
:10140000FFF7E0FF6268A168521A801A10BD38B574
:101410000400002C02D15FF0FF3008E02000FFF74D
:10142000D1FF05002000FFF7D5FF2D1A280032BD9F
:101430002DE9F84F04000D0016000027002C02D102
:101440005FF0FF3057E0002D02D15FF0FF3052E037
:101450006068A168884218D22000FFF7BBFF86426F
:1014600001D2B04603E02000FFF7B4FF80464746B4
:10147000D4F80490AA463A004946504600F00AF9CA
:10148000606840446060404635E02000FFF79AFF06
:101490006268E168521A801A86420ED2B046C1468E
:1014A000D4F804A0AB464A465146584600F0F2F83C
:1014B00060684044606040461DE02000FFF782FF06
:1014C0006168D4F80C80B1EB0808B0EB0808C1469D
:1014D000D4F804A0AB464A465146584600F0DAF824
:1014E000E0686060B6EB080205EB08012000FFF73A
:1014F0009FFF10EB0800BDE8F28F2DE9F0470400D4
:101500000D0016005FF00008002C01D0002D02D164
:101510005FF0FF304CE02000FFF779FF864202D3F6
:101520007FF0010044E0A0686168884233D3200066
:10153000FFF748FFA168E768CF1BC71BB74217D367
:10154000B046A946D4F808A042464946504600F0A5
:10155000A1F8A0683044A0602000FFF733FFA16825
:10156000E2681044814201D1E068A06030001FE0D1
:10157000B846A946D4F808A042464946504600F06D
:1015800089F8E068A060F21B05EB07012000FFF777
:10159000B4FFC0190CE03700A946D4F808A03A00FF
:1015A0004946504600F076F8A0683044A06030000C
:1015B000BDE8F08762F30F2262F31F42401810F07B
:1015C000030308D0C91A1FD3DB0748BF00F8012D59
:1015D00028BF20F8022D130030B4144615461039E8
:1015E00028BF20E93C00FAD8490728BF20E90C00B1
:1015F00048BF40F8042D890028BF20F8022D48BFBD
:1016000000F8012D30BC7047C91818BF00F8012D33
:10161000CB0728BF00F8012D7047F0B402461068D0
:1016200095681318506803EB5004C0071DD54D444E
:101630001BE013F8017B05F8017B491EF9D1A0B12D
:10164000B60813F8011B06F00306032E08BF13F8B3
:10165000016B01EB06214942801C294405D011F899
:10166000016B05F8016B401EF9D1A3420ED013F8AF
:10167000016B16F0030104BF13F8011BC91C3009EC
:101680000F28DAD113F8010B0F30D6E7F0BC02F1C6
:101690000C00704762B38B0708D0521E11F8013B53
:1016A00000F8013B00F024808B07F6D1830740F05F
:1016B000208000BF103A07D330B4B1E83810103A98
:1016C000A0E83810F9D230BC530724BFB1E80810A5
:1016D000A0E8081044BF51F8043B40F8043BD2078F
:1016E00024BF31F8022B20F8022B44BF0B78037083
:1016F0007047121F17D35B0009D151F8043B20F843
:10170000023B1B0C121F20F8023BF6D20BE051F8F3
:10171000043B00F8013B1B0A20F8023B1B0C121F84
:1017200000F8013BF3D238BF121D521E24BF11F83E
:10173000013B00F8013BF8D8704730B4002513E0B6
:1017400050F8042BD30744BFA9F101039A18091FCD
:10175000042942F8045BFAD213468C0744BF158073
:101760009B1CC90748BF1D7050F8041B0029E7D116
:1017700030BC70472DE9F84F86B004000D0016000C
:101780000021059504952F00002C01D0002D02D1D9
:101790005FF0FF302EE15FF0000840462178C0B2D4
:1017A000884280F026814046C0B22044407800281C
:1017B00000F0F080012800F0EE80022800F0EC80BC
:1017C000052800F0EA80062800F0E880072800F0ED
:1017D000E680082800F0E4800D2800F0E2800E2862
:1017E00000F0EB800F2800F0F880102800F0E08077
:1017F000112840F0FB80DFF8EC04FFF7C3FD5FF039
:101800000B0A05980090DFF8E094CB465246009909
:101810005846FFF73FFF99F80000102190FBF1F0C8
:10182000012807D01FD303280ED008D3052815D0D0
:101830000FD318E00120DFF8B414087017E002207D
:10184000DFF8A814087012E00320DFF8A014087075
:101850000DE00420DFF89414087008E00520DFF89C
:101860008C14087003E00F20DFF88014087099F8DA
:101870000000102190FBF1F201FB1200012804D0BE
:1018800012D303280BD005D30EE00120DFF85C143F
:1018900048700DE00220DFF85414487008E003207F
:1018A000DFF84814487003E00020DFF84014487067
:1018B0000020092808DA09EB00014978DFF82C2418
:1018C00002449170401CF4E7DFF8200499F80A10F4
:1018D000C172DFF81C140A780F2A02D00A780E2A87
:1018E00028D102780A7042788A700022092A08DA20
:1018F00000EB02039B7801EB020C8CF80830521CC1
:10190000F4E70A78012A07D014D3032A0AD006D3B1
:10191000052A0DD009D30DE001224A740AE0012204
:101920008A7407E00122CA7404E001220A7501E00A
:10193000052202700278032A01D10122CA740078BC
:10194000052826D10F20087000208870002088719B
:10195000002088760020C87600200877002048778D
:10196000002088770020C877002081F82000002020
:1019700081F82100002081F82200002081F8230056
:10198000002081F82400002081F82500072001F0C4
:1019900032FE2BE02AE029E028E027E026E025E0DF
:1019A00024E004980178DFF84C03FFF7EBFC1DE01E
:1019B000DFF84403FFF7E6FC18E0B8680390B87955
:1019C00002907879019038790090FB78BA7839885C
:1019D000DFF82803FFF7D6FC08E0DFF82403FFF761
:1019E000D1FCDFF82003FFF7CDFCFFE718F1010879
:1019F000D3E6002007B0BDE8F08F70B5BC4C20786E
:101A00000F2802D120780E2818D02078012807D07E
:101A100014D303280AD006D305280DD009D30DE02E
:101A200001F0E4F90AE001F0CEFB07E001F0F3FC7D
:101A300004E001F027FD01E001F02CFDB249486B04
:101A4000652808DB002081F83200002048630F2061
:101A5000207001200870E07D00287DD008780128E2
:101A60002CD1486841F64172904243DB0020486027
:101A7000A64801780F2902D10E21017007E00178F4
:101A80000E2902D10F21017001E0217801706178E7
:101A90004170A179012902D12179817001E0A178F9
:101AA0008170A179C170E17901710021092921DAE0
:101AB000002200EB01035A71491CF7E79348217893
:101AC000017061784170A179012902D12179817079
:101AD00001E0A1788170A179C170E17901710021E3
:101AE000092907DA04EB0102127A00EB01035A71AB
:101AF000491CF5E77C4985480278437813EB0213CB
:101B0000CB728278C37813EB02130B7302794A739A
:101B10000022092A07DA00EB02035B7901EB0204D9
:101B2000A373521CF5E70020C87500220C2A13DAB3
:101B300001EB0200C37A1024CD7D01EB0200C07AD4
:101B4000102690FBF6F045195D1993FBF4F004FBA9
:101B50001054CC75521CE9E770BD70B518240025EF
:101B6000614E2A0021003000FFF724FD70BD684857
:101B70000168491C0160704765480068704780B57E
:101B8000012080F3138801F01FFE01BD11B581B063
:101B90000C004FF6FF73012201A95E4801F06BFEB5
:101BA000019816BD10B504005B4884422FD15648F9
:101BB0000178012902D14168491C4160017A01295B
:101BC00002D1C168491CC160017C012902D141696F
:101BD000491C4161017E012902D1C169491CC161D1
:101BE00090F82010012902D1416A491C416290F805
:101BF0002810012902D1C16A491CC16290F8321033
:101C0000012902D1416B491C4163FFF7B0FF10BDB0
:101C100080B5414802F07EF901BD38B50400206866
:101C20003E49884209D13E4D01212800FEF780FA45
:101C3000012229003B4801F0BBFE31BD80B50122E5
:101C40003749384801F0B4FE01BDF8B504000D0075
:101C5000354800788DF800000021002C02D15FF09B
:101C6000FF303BE00026AE421AD22E4F012204EB99
:101C70000601380001F06FFE97F839002028FBD1EB
:101C8000022E0BD3A05DFF2808D10122694638003F
:101C900001F061FE97F839002028FBD1761CE2E7BD
:101CA000FFF76AFF2A0001002048FFF76BFB0027BF
:101CB000AF420FD21E4EE15D3000FFF763FB022FF3
:101CC00006D3E05DFF2803D155213000FFF75AFB12
:101CD0007F1CEDE702A0FFF755FB2800F2BD0000D6
:101CE0000A0000006072000890040020C804002070
:101CF00068040020C87400088C7300089C6D0008FC
:101D0000A0730008B473000800040020B804002089
:101D1000E0040020400300200003002000440040B5
:101D2000FC0400208003002032450008C87300082E
:101D30001C7500080300002013F0030F09D0521E89
:101D400022BF13F8010B11F801CBB0EB0C00F3D05C
:101D5000704711F0030F14D1121F22BF53F8040B68
:101D600051F804CB6045F7D0121D0AD200BA9CFA94
:101D70008CFCB0EB0C0038BF6FF0000088BF012076
:101D80007047521E22BF13F8010B11F801CBB0EBC4
:101D90000C00F6D0521C08BF1046704730B4020049
:101DA00000230024002A01D0002901D1002009E0ED
:101DB0000225481E854203D2505DC3186D1CF8E70A
:101DC0001800C0B230BC704701B481B00020ADF83B
:101DD0000000694601AA5078087010784870BDF874
:101DE000000002B070470100080210F47F0050EAC2
:101DF00001600A00120A12F47F42104350EA116097
:101E00007047B1F5807F02D34FF0FF30704701700B
:101E1000012070470078401E8041C043C00F7047CA
:101E20002DE9F04F0FF2A41CA1B0DCE90089CDE947
:101E300000892A9DDFF8109C049100248DF84350FE
:101E40000D944FF0FF38824616461F460FE0B3460A
:101E50002C461BF8011B0498D0470028049000F082
:101E6000A2800D98401C641E0D90F2D17619307836
:101E7000252808D1002100220791089209910A9291
:101E80000B910C920DE06A464146304602F084FB0D
:101E9000050001D10D98A1E0D9D50125E6E741F073
:101EA000010116F8010F2028F9D023280CD02B2887
:101EB00004D02D2805D0302809D076E041F0020169
:101EC000EFE741F00401ECE741F00801E9E741F0F8
:101ED0001001E6E70F9209E00F98484505DA00EB9C
:101EE000800402EB4402303A0F92761C3278A2F161
:101EF00030000A28F0D330782E2818BFCDF838806B
:101F000022D116F8010F2A2807D138683860761CCC
:101F100050F8042B38600E9216E02D280CBF761C6A
:101F2000002000220E920AE040B90E9A4A4505DAD6
:101F300002EB820403EB4403303B0E93761C3378B0
:101F4000A3F130020A2AEFD3ADF8401021A0317876
:101F500002F02CFB08B116F8010B8DF842009DF839
:101F60004200682804D1307868280AD1622105E04F
:101F70006C2804BF30786C2803D171218DF8421091
:101F8000761C12A806903A4616F8013B02A9504664
:101F900000F064F838B912AA02A9504600F0CAF954
:101FA00000287FF564AF404618E02A2892D13A68AD
:101FB0003A6052F8040B3A6000280F9003D5404273
:101FC0000F9041F00401761C95E70000000000002E
:101FD00000000000686A6C747A4C000021B0BDE813
:101FE000F08F622820D0682811D06A2803D06C288E
:101FF00027D0712825D10868C01D20F0070008608F
:10200000D0E9002308300860194610467047002ABE
:102010000A680A60106803D0121D0A6000B217E057
:10202000121D0A6080B217E0002A0A680A60106870
:1020300003D0121D0A6040B20AE0121D0A60C0B24D
:102040000AE0002A0A680A60106803D0121D0A60BC
:10205000C1177047121D0A60002170477CB50D46FC
:1020600011461C462E69B4F1250200F051811C3A3C
:1020700000F08680121F022A40F282800E3A00F0A1
:102080000B81521F5AD0093A7AD0921E16D0521E96
:1020900035D0521E022A73D9121F30D0521F00F0C1
:1020A0009A80521E4AD0521E00F0E480D21E00F0E8
:1020B0000181921E42D0D21E40D02FE195F83A40C5
:1020C0006C2C09D06869421C6A610A680A6052F87F
:1020D000043B0A6033542BE10A680A6052F8043B5F
:1020E0000A600093002201924FF0FF332B636A468F
:1020F000294600F09AF9002840F11A8105E195F887
:102100003A000122FFF76DFFC5E900010023994263
:1021100004DA6869411C69612D220DE0288F81076E
:1021200004D56869411C69612B2205E0C00722D5EE
:102130006869411C6961202232541CE095F83A001C
:102140000022FFF74EFFC5E9000195F838000107AE
:1021500011D5D5E900230020834208BF82420AD06E
:1021600044F02000782806D1686930213154401CA1
:10217000421C6A613454214668693044E86087E053
:102180000868C01D20F007000860D0E9002308306F
:102190000860C5E90023D5E90001C80F04D06869CB
:1021A000411C69612D220DE0288F810704D56869E3
:1021B000411C69612B2205E0C00704D56869411CF8
:1021C00069612022325468693044E860214628461B
:1021D00000F03AFAACE005F13A02507820B14FF045
:1021E000FF340FF6343074E01078622808D0682885
:1021F00024D06A2812D06C282ED071280ED02BE063
:102200000A680A6052F8040B0A6020B94FF0FF34E4
:102210000FF61C305DE0E96A017089E00A680A6027
:1022200052F8040B0A6020B94FF0FF340FF600306B
:102230004FE0EA6AD317C0E9002379E00A680A6030
:1022400052F8040B0A6020B94FF0FF340FF6E0207B
:102250003FE0E96A01806BE00A680A6052F8040B0B
:102260000A6020B94FF0FF340FF6C42031E0E96A6C
:1022700001605DE00A680A6052F8040B0A60002100
:1022800020F0000221F0FF33C5E90023EE60782141
:10229000284600F02DF94BE06C2285F83A200B68B7
:1022A0000B6053F8042B0B6052BB4FF0FF340FF65A
:1022B000B4200EE095F83A206C2AF0D00868086047
:1022C00050F8044B0860EC603CB94FF0FF340FF657
:1022D000782002F077F9201A76BD2E6B002E04D5F7
:1022E000204602F08FF9044608E0324600212046DD
:1022F00002F0A4F9002814BF041B3446AC6117E0B7
:10230000294600F092F8002812D54FF0FF3076BD34
:102310006869411C69612522325409E06969481CD9
:10232000686125227254210002D0431C6B61345431
:10233000002076BD2DE9F0410E4605469046726BB1
:102340007069316AB46A121AB069521A716A121A43
:10235000F069521A121A96F83800141B41070DD46E
:10236000002C0BDD2746B0682021A8470028B0606C
:1023700057D0F06A401C7F1EF062F4D17369424668
:102380003146284600F0B0FC00284AD1376A002FB9
:102390000ADDB0683021A8470028B06041D0F06A5B
:1023A000401C7F1EF062F4D1B369F26831462846C2
:1023B00000F09AFCA8BB776A002F09DDB0683021D5
:1023C000A847B06068B3F06A401C7F1EF062F5D188
:1023D000F068B169F36942183146284600F084FC80
:1023E000F8B9B76A002F09DDB0683021A847B0609E
:1023F000B8B1F06A401C7F1EF062F5D196F8380043
:1024000041070BD5002C09DDB0682021A847B0603A
:1024100038B1F06A401C641EF062F5D10020BDE8BE
:10242000F0814FF0FF30BDE8F0812DE9F8470D460F
:10243000A3B02F6B002F0646904648BF6FF00047B1
:102440000FF63C1402F026F9D4E90023696B40181A
:10245000CDE90123812828BF4FF0FF3042D200246C
:10246000002F33DDD8F8001001AA684602F096F874
:102470008146B9F1000F38D4D8F8000010B9B9F18D
:10248000010932D44F4521DB6869484481280AD3C9
:102490000021696303AA29463046FFF74BFF040079
:1024A00014D40020686103ABD5F814A04A466946ED
:1024B00003EB0A00FFF7EEF8CA44C5F814A058F879
:1024C000040B002818BFA7EB0907C9D14CB903AA10
:1024D00029463046FFF72EFF044614B900206861F4
:1024E0006863204624B0BDE8F0874FF0FF34F8E77A
:1024F0002DE9FC4707468C463E69BCF16F0F08BFCB
:10250000082405D04CF02000782814BF0A24102499
:102510003C25D7E90023BCF1640F18BFBCF1690F5B
:102520009046994606D100218B4203DAD8F1000883
:1025300069EB49094FF0000AD14508BFD0451FD1CA
:10254000386BE8B9082C4BD197F83800010747D50C
:1025500030203B2586F83B0042E000280ED597F856
:10256000380000F01400102808D17B6B7969386AB4
:102570005B1A1B1A9A1A002AC8BF3A62BDE8F38791
:102580008DF800C0404649462246E31702F088F81D
:102590003032D0B26D1E3A28019504DB9DF8000060
:1025A000A0F151018A187255404649462246E31768
:1025B00002F076F889468046D14508BFD04503D061
:1025C000F86871198842DDD3082C09D197F83800D2
:1025D000010705D5705D302802D06D1E3020705582
:1025E000C5F13C02BA617119F960386B8242B4DA04
:1025F000821A3A624FF6EF70398F01403987BDE891
:10260000F3872DE9D04306460F4614464FF00008E5
:10261000DFF8389412E0E00707D542464B463046D3
:10262000394602F055F906460F46404649464246AD
:102630004B4602F04DF9641080468946002CEAD1E1
:1026400030463946BDE8D0832DE9F34F054641F0C9
:1026500020048DB0D5E90089612C02AE09D0286B29
:10266000002848BF062003D408BF672C01D10120F1
:102670002863D5E9002358004015401C0ED11903EA
:102680000CD00320A8619DF8381061391A2902D2B4
:102690000FF2F46111E00FF2F4610EE059004915F8
:1026A000491C0FD118030DD10320A8619DF83810E3
:1026B00061391A2914D30FF2DC61E8680322FEF7AE
:1026C000E9FFD3E1194621F00043B3F5801F10461E
:1026D0000DD20027BB4208BFBA42019703D111E0D7
:1026E0000FF2AC61E9E701AA02F0C4F90AE0DFF8F1
:1026F000607307EB1352DFF85C3301921940DFF887
:1027000058331943C5E90001612C0ED1E868302126
:102710000170821CEA609DF8381061290CBF782195
:10272000582141706869801C6861D5E900AB2BF0C5
:10273000004300202AF00002834204BF82420023AB
:1027400000F05B81612C40F0AA80286B002847BF15
:1027500021210091401C0090009F7F1C404649466B
:102760000022002302F0BEF9D94601998DF8082015
:1027700038BF89F00049091F002FD04601910DF1A3
:10278000090040F34981B349DFF8D0B20C91064605
:10279000404649460022002302F0BCF980F03B810C
:1027A0004800400D00F11C0211D0002A0FDD40F25C
:1027B000FF70824205DB09F0004040EA0B01002077
:1027C00013E00C98014041EA025140460DE029F027
:1027D0000043002028F00002834208BF82420FBF5E
:1027E00040461C22404602F0ADF98046894602F080
:1027F00047FAFF1F002F044609DD02F05FFA024688
:102800000B464046494602F06BFA80468946F01D69
:10281000072104E004F00F0200F8012D2411002C20
:1028200001DD491EF6D5491E5CBF002200F8012DCE
:10283000F9D5ECE00020194602AA0A4400E05B1E2C
:1028400012F80149491E8442F9D00F2804D10DF134
:102850000900425C521C4254002904D50198001D15
:1028600002AE5B1C0190591E12D49DF838007218FC
:10287000A0F13A07147804F130085FFA88F43A2C92
:10288000A8BFB844491E02F80189F3D58DF8380075
:10289000286B002840F1B080591E2963ACE0404607
:1028A00049460022002302F01DF9019938BF89F042
:1028B000004947F297504143694A91FBF2F2019275
:1028C000D2F1070204DD40464946FFF79AFE0AE0CE
:1028D000524200206349FFF794FE02460B464046F1
:1028E000494602F06FFA8046662C286BDFF878B113
:1028F00006BF019F0A3706273F18142FC8BF1427A9
:1029000030208DF8080089460DF1090000E03046BE
:10291000002F34DD06464046494602F077FB01466B
:102920000A4606F1080304200A26B2FBF6F606EB77
:10293000860EA2EB4E02303203F8012C0A22B6FBBF
:10294000F2F202EB820EA6EB4E063036401E03F882
:10295000026DE9D1083F002F03F10806D7DD0846D4
:1029600002F068FB02460B464046494602F0B8F9C1
:1029700000225B4601F0ACFF80468946CBE70DF1B3
:102980000901401A0DF1090604E00199491E401E93
:102990000191761C31783029F7D0662C02D101994B
:1029A000491C03E0652C0CBF012100212B6BCB18C7
:1029B0009842B8BF431E002B1ED4834204DAF05C59
:1029C0003528A8BF392000DA30201946721E02EBE4
:1029D000010800E05B1E18F80199491E8145F9D0F5
:1029E000392802D1705C401C7054002904D501982C
:1029F000401C16465B1C0190019800B200901BB26F
:102A00009DF838103246284600F034F82EE0C61DF6
:102A1000002F3FF7BDAE30460DF10901401A009975
:102A200003468842C8BF0B46002B0DF109063FF54F
:102A30002FAF8342BFF6FEAE0DF10900C15C07293E
:102A40007FF7F8AE0F20F6E6CBCCCC0C000024408C
:102A500002FCFFFFFFFF0F800000E03F0000F07F5F
:102A6000A08601000000F03F84D797410FB0BDE879
:102A7000F08F00002DE9F84783B006468A461746D6
:102A8000984601F08DFDB8F1000F406A356B90F863
:102A9000009002DC4FF00108BFA74AF02000BDF90A
:102AA0003040662808BF641C15D0672840F0848039
:102AB00014F1040FC0F28680AC4280F2838096F855
:102AC0003800641C010702D4A845B8BF454620B2AF
:102AD0002D1A48BF00250FFA84FAF068B169BAF1DF
:102AE000000F25DC4A1C30234354002D03DC96F8EC
:102AF0003800010703D5F06800F80290521C15EB6E
:102B00000A0FB8BF6C4220B2441941424445B8BFD5
:102B1000A046B26171620FFA88F5F561F068B36999
:102B20002A4639461844FEF7B5FD641BB462C4E07A
:102B300022B29045084417DA42463946FEF7AAFD0C
:102B4000B0694044B061AAEB0801002D716203DC5A
:102B500096F838100A0705D5F16801F80090F06979
:102B6000401CF061B562A8E03946FEF793FDB069FC
:102B7000002D5044A8EB040803DC96F838100A072F
:102B800003D5F16801F80090401CB0610FFA88F09D
:102B90008542F368B069B8BFA8460FFA88F207EB20
:102BA0000A011844FEF776FDB1690FFA88F0014476
:102BB000B161281A706280E0BAF1610F14D14FF050
:102BC000700A16E0A84504DA96F838100A0758BFCC
:102BD00045466D1E48BF0025BAF1670F14BF4FF080
:102BE000450A4FF0650A04E0BAF1410F08BF4FF003
:102BF000500AB169F368481CB061002D17F8012B29
:102C00005A5403DC96F838100A071BD5F168431CA8
:102C1000B36101F80090002D14DDA8F101080FFA4E
:102C200088F039468542F768B8BFA8460FFA88F29F
:102C3000F818FEF72FFDB0690FFA88F108446D1AF5
:102C4000B0617562F068B1690844002C80F800A09A
:102C500003D42B224270811C03E02D214170644279
:102C6000811C00206A460AE023460A2493FBF4F400
:102C700004EB8405A3EB450302F8013B401C24B29E
:102C8000002CF1DC012806DC4AF02002652A04BF92
:102C9000302201F8012B48B9302001F8010B07E080
:102CA000401E1DF80030303301F8013B0028F7DCEE
:102CB000F268B0691044091AF16196F8380000F022
:102CC000140010280DD17269B169706A8A18F1690F
:102CD0008218B06A8A188218706B8242BCBF821A4E
:102CE000326204B0BDE8F087F8B505460E461746D7
:102CF0001C46002074B117F8011BB068A847B060EB
:102D000030B1F06A401CF0620020641EF3D1F2BDC5
:102D10004FF0FF30F2BD00007072696E74665F7331
:102D20003A20256E20646973616C6C6F776564006E
:102D30007072696E74663A2062616420256E20614B
:102D40007267756D656E74007072696E74665F731C
:102D50003A2062616420257320617267756D656E2B
:102D6000740000007072696E74665F733A2062616D
:102D70006420256C7320617267756D656E74000048
:102D800000000000000000006E616E004E414E0029
:102D9000696E6600494E46003000010210B5DFF84A
:102DA000CC080121017201210170DFF8C408012162
:102DB000C175012181750F21017001214170002130
:102DC000817000218171DFF8AC48012202212000CE
:102DD00002F068FA01224FF48051200002F062FAFA
:102DE00001220421200002F05DFA10BD2DE9F0411E
:102DF000062000F000FCDFF8804801224FF400417B
:102E0000200002F04FFADFF8745801220221280056
:102E100002F048FA01220221200002F043FA4FF4A6
:102E20007A7002F077FA00224FF40041200002F09D
:102E300039FA00220221280002F034FA002202218D
:102E4000200002F02FFADFF82868707C012840F09B
:102E5000B8810120B0750120307601207076307E77
:102E6000002840F0B780B07D002840F0B3800220F9
:102E70007070062000F0BFFB0020DFF8F01708702C
:102E800001203076DFF8EC7701220221380002F0D1
:102E900009FA0A2002F03EFA8021DFF8E40702F086
:102EA000F6F901282AD103207070082000F0A3FB56
:102EB0003079002802D1012030711DE030790128DD
:102EC00009D019D303280CD008D305280FD00BD371
:102ED00006280FD010E0012030710DE00420307181
:102EE0000AE00520307107E00420307104E005207D
:102EF000307101E0072030710120B07110212000F5
:102F000002F0C5F901282AD103207070082000F0D2
:102F100072FB3079002802D1022030711DE0307937
:102F2000012809D019D303280CD008D305280FD0C5
:102F30000BD306280FD010E0042030710DE00220E2
:102F400030710AE00620307107E00420307104E09F
:102F50000720307101E0062030710120B07120217E
:102F6000200002F094F901282AD103207070082073
:102F700000F041FB3079002802D1032030711DE0C0
:102F80003079012809D019D303280CD008D305289B
:102F90000FD00BD306280FD010E0052030710DE0C4
:102FA000062030710AE00320307107E007203071FD
:102FB00004E00520307101E0062030710120B0717D
:102FC000B079002801D1012070760022022138005A
:102FD00002F068F90120707601207077B07F002838
:102FE00022D1707F01281FD10120B0770120DFF8A6
:102FF0007C160876F078002804D0012809D004282F
:103000000DD011E001224FF40041200002F04AF9F6
:103010000AE001220221280002F044F904E0012222
:103020000221200002F03EF9DFF84076F86940F214
:10303000097188425EDB5FF00008F078002804D058
:10304000012809D004280ED013E04FF4804120005D
:1030500002F01DF980460CE04FF48041200002F0A0
:1030600016F9804605E04FF48041200002F00FF988
:1030700080464046C0B2012823D100203876002087
:10308000F861F078002804D0012809D004280DD078
:1030900011E000224FF40041200002F003F90AE0A1
:1030A00000220221280002F0FDF804E000220221A3
:1030B000200002F0F7F8B07900281BD10120F0774A
:1030C00018E0F86940F6B931884213DB00224FF46A
:1030D0000041200002F0E6F8002038760020F86178
:1030E00003207070082000F086FAB079002801D122
:1030F0000220B071012086F82000012086F821000E
:10310000012086F82200012086F82300012087F89C
:103110002000012086F82400012086F8250096F87A
:10312000260000282ED196F8250001282AD101205A
:1031300087F8280001207070002087F831000020F7
:1031400087F828000020F862002030760020707692
:1031500000203077002070770020B0770020F077D3
:10316000002086F82000002086F82100002086F844
:103170002200002086F82300002086F8240000208A
:1031800086F82500012087F82800012070700020B3
:1031900070740F2030700020B0700020B0710120DA
:1031A000387000224FF40041200002F07BF800222A
:1031B0000221280002F076F800220221200002F00D
:1031C00071F8BDE8F081F8B5012000F014FADFF8DD
:1031D000A0440120E0760120A076DFF89054002082
:1031E000287002206070002028700120A076012045
:1031F000E0760120207701206077A07F00284DD164
:10320000607F01284AD10120A07701202876A0788C
:10321000012804D018D3032810D008D314E00122C9
:103220004FF40041DFF8500402F03CF80CE00122BA
:103230000221DFF8480402F035F805E001220221FE
:10324000DFF8340402F02EF8022000F0D4F94FF435
:103250007A7002F05FF8DFF8206400224FF400413A
:10326000300002F01FF800220221DFF8100402F003
:1032700019F800220221300002F014F8E8210020A1
:1032800000F00DF94FF4FA7002F044F8E821012043
:1032900000F005F94FF4FA7002F03CF8E86940F2EA
:1032A000F51188425FDB0026A078012804D00BD3FB
:1032B000032807D003D307E00120060004E0012023
:1032C000060001E001200600E86940F6B9318842B5
:1032D00020DBDFF8A47300224FF40041380001F036
:1032E000E1FF00220221DFF8940301F0DBFF00225E
:1032F0000221380001F0D6FF002028760020E86186
:1033000003206070052000F076F9A079002801D133
:103310000220A0713000C0B2012824D1A078012879
:1033200004D015D303280ED007D311E000224FF4A8
:103330000041D14801F0B6FF0AE000220221CF4847
:1033400001F0B0FF04E000220221CB4801F0AAFF07
:10335000002028760020E8610020A071A0790028D4
:1033600001D10120E077012084F82000012084F8B9
:103370002100012084F82200012084F8230094F821
:103380002400002809D194F82300012805D1012048
:1033900085F82000012084F82400012084F825000D
:1033A00094F82600002835D194F82500012831D161
:1033B000012085F82800002085F831000020E07009
:1033C000012060700020A074012085F832000020E8
:1033D00085F828000020E8620020A0760020E07632
:1033E00000202077002060770020A0770020E07781
:1033F000002084F82000002084F82100002084F8B8
:103400002200002084F82300002084F824000020FB
:1034100084F82500F1BD38B5032000F0ECF8944C99
:10342000E07C01282DD1914D287C002806D1012077
:10343000287401221021924801F034FF6869332872
:103440001DDB002210218E4801F02CFF0020287483
:103450000020686103202070012060700020A070AF
:103460000020A0710020092807DA864901448978E4
:1034700004EB00021172401CF5E70020E0740F20FD
:10348000207031BD80B5042000F0B5F80F207849D8
:10349000087001BD80B5072000F0ADF801BD2DE931
:1034A000F04104000D002000C0B2012844D10026E4
:1034B0002800C0B2864280F284806F4F00224021F3
:1034C000380001F0EFFEDFF8AC8101224FF400512B
:1034D000404601F0E7FE062001F01CFF00224FF4F9
:1034E0000051404601F0DEFE01224FF4804140468B
:1034F00001F0D8FE062001F00DFF00224FF48041BC
:10350000404601F0CFFE01224FF40041404601F059
:10351000C9FE062001F0FEFE00224FF400414046A5
:1035200001F0C0FE01224021380001F0BBFE062060
:1035300001F0F0FE761CBBE75FF000082800C0B287
:1035400080453EDA4B4F00224FF40051380001F025
:10355000A9FE494E01224021300001F0A3FE0620C1
:1035600001F0D8FE00224021300001F09BFE012234
:103570004FF40041380001F095FE062001F0CAFE2C
:1035800000224FF40041380001F08CFE01224FF47C
:103590008041380001F086FE062001F0BBFE0022CB
:1035A0004FF48041380001F07DFE01224FF40051BC
:1035B000380001F077FE062001F0ACFE18F101089A
:1035C000BCE72C4E00224FF40051300001F06AFE9F
:1035D00000224FF48041300001F064FE00224FF4DD
:1035E0000041300001F05EFE00224021224801F03F
:1035F00059FEBDE8F0817CB5040068462249D1E956
:103600000023C0E9002368460179611801714179FE
:10361000611841711D4D40F2E736330001226946C1
:10362000280000F028F9330001220DF101012800E3
:1036300000F021F9330001220DF10201280000F011
:103640001AF9330001220DF10301280000F013F9EB
:103650003300012201A9280000F00DF933000122F6
:103660000DF10501280000F006F973BD00040020EB
:1036700068040020000C01400010014000140140CB
:1036800000080140C80400203C750008C003002069
:1036900010B410F00703514C22684FF6FF010A40A6
:1036A0004F4951EA03210A43226010BC70474B483E
:1036B0000068C0F302207047012210F01F018A4009
:1036C000484903005BB25B0941F82320704710B4FE
:1036D000020052B2002A09D50A01434B040064B229
:1036E00014F00F04234403F8042C04E00A013F4BB8
:1036F000040064B21A5510BC704770B4030013F094
:103700000704D4F10700052801D3042001E0D4F117
:103710000700251D072D01D2002500E0E51E01262A
:1037200016FA00F0401E0140A94016FA05F56D1E7C
:103730002A401143080070BC7047BFF34F8F2749E0
:103740000A6812F4E0622A4802430A60BFF34F8F0E
:1037500000BFFDE710B50400601EB0F1807F01D30B
:1037600001200EE0601E234908600F215FF0FF304A
:10377000FFF7ADFF00202049086007201F490860BF
:10378000002010BD10B504002000FFF781FF10BD20
:103790002DE9F04104000D0016000027FFF787FF18
:1037A0008046320029004046FFF7A7FF01002000B5
:1037B00040B2FFF78CFFBDE8F08110B50400200097
:1037C00040B2FFF779FF10BD80B5FFF7B6FF01BD2E
:1037D00010B504002000FFF7BDFF10BD0CED00E0A8
:1037E0000000FA0500E100E018ED00E000E400E070
:1037F0000400FA0514E000E018E000E010E000E04A
:1038000010B50400002C01D1012033E0A06900288C
:10381000FFD194F83900002805D1002084F8380041
:10382000200001F00DFE242084F839002068C068D3
:1038300030F400502168C860200000F089FA206848
:10384000006930F49040216808612068406930F0D8
:103850002A00216848612068C06850F4005021683F
:10386000C8600020E063202084F83900202084F81C
:103870003A00002010BD2DE9FC4705000C001600A1
:103880001F005FF0000A95F83900202860D1002C55
:1038900003D0300080B2002801D1012059E095F812
:1038A0003800012801D1022053E0012085F83800BA
:1038B0000020E863212085F8390001F071FE81467F
:1038C000AE84EE84E88C00282FD0E88C401EE8847B
:1038D000A868B0F5805F18D100974B460022802180
:1038E000280000F043F9002801D0032031E0A04671
:1038F000B8F80000C005C00D296848602869002894
:1039000001D1A41CDEE7641CDCE700974B460022D3
:103910008021280000F02AF9002801D0032018E0B7
:10392000207829684860641CCCE700974B46002249
:103930004021280000F01AF9002801D0032008E0F7
:10394000202085F83900002085F83800002000E0AC
:103950000220BDE8F68710B4030093F83900202850
:1039600023D1002903D0100080B2002801D101200A
:103970001CE093F83800012801D1022016E0012054
:1039800083F8380019629A84DA840020D8632120F1
:1039900083F83900002083F838001868C06850F0B8
:1039A00080001C68E060002000E0022010BC70472E
:1039B00010B4030093F83A0020282FD1002903D037
:1039C000100080B2002801D1012028E093F83800CF
:1039D000012801D1022022E0012083F838009962F9
:1039E0009A85DA850020D863222083F83A000020E7
:1039F00083F838001868C06850F480701C68E06074
:103A00001868406950F001001C6860611868C0685F
:103A100050F020001C68E060002000E0022010BC94
:103A200070472DE9F8430600306807683068D0F821
:103A30000C803068D0F814900020002517F00F0497
:103A4000002C08D1B80606D55FEA886003D530009F
:103A500000F027F988E0002C74D05FEAC97002D426
:103A600018F4907F6ED017F00100C0B2002806D085
:103A70005FEAC85003D5F06B50F00100F06378079F
:103A800008D519F00100C0B2002803D0F06B50F047
:103A90000200F063B80708D519F00100C0B2002891
:103AA00003D0F06B50F00400F063380708D519F02C
:103AB0000100C0B2002803D0F06B50F00800F063A2
:103AC000F06B00283DD0B80605D55FEA886002D5C6
:103AD000300000F0E6F830684069800910F001001D
:103AE0000500F06B000701D4002D25D0300000F058
:103AF00074F83068406940061AD53068406930F083
:103B0000400031684861706B00280DD00FF2ED0065
:103B1000716B4863706B01F049FD002811D0706B28
:103B2000716B496B88470CE0300001F03BFE08E008
:103B3000300001F037FE04E0300001F033FE0020D9
:103B4000F06311E0380606D55FEA086003D530005F
:103B500000F060F808E0780606D55FEA486003D513
:103B6000300000F08EF8FFE7BDE8F1832DE9F04169
:103B700005000E0090461F00069C28680068304033
:103B8000B04201D1012000E000204146C9B2884284
:103B900020D114F1010FF0D0002C04D001F000FD71
:103BA000C01B8442E9D22868C06830F4D07029680C
:103BB000C8602868406940084000296848612020A2
:103BC00085F83900202085F83A00002085F8380073
:103BD000032000E00020BDE8F0810168C96831F4ED
:103BE00090710268D160016849694908490002681A
:103BF0005161202180F83A107047000038B5040068
:103C0000656A0020E8850020E884280001F0CAFDEC
:103C100031BD0000010091F8390021282FD18868BA
:103C2000B0F5805F11D1086A02001088C005C00D90
:103C30000B6858600869002803D1086A801C086274
:103C400009E0086A401C086205E0086A431C0B6230
:103C500000780B685860C88C401EC88480B2002869
:103C60000BD10868C06830F080000B68D860086825
:103C7000C06850F040000B68D860002000E00220CF
:103C8000704710B504002068C06830F0400021681B
:103C9000C860202084F83900200001F084FD002055
:103CA00010BD38B5040094F83A0022284ED1A0681F
:103CB000B0F5805F16D1A06A05002069002808D100
:103CC00020684068C005C00D2880A06A801CA062E2
:103CD0001AE02068406800F0FF002880A06A401CBD
:103CE000A06211E02069002806D1A06A411CA162EF
:103CF00021684968017007E0A06A411CA16221683F
:103D0000496811F07F010170E08D401EE08580B2AE
:103D1000002819D12068C06830F020002168C860F0
:103D20002068C06830F480702168C86020684069ED
:103D30004008400021684861202084F83A002000B3
:103D4000FDF76BFF002002E0002000E0022032BD02
:103D50002DE9F843050000242868016931F4405139
:103D6000E868014328680161A96828690143686916
:103D700001430C432868C168564801402143286824
:103D8000C1602868416931F44071A869014328681D
:103D900041612868504988424DD101F0F3FF060087
:103DA00001F0F0FF070001F0EDFF804601F0EAFFAF
:103DB000814601F0E7FF6421192256436B689B009E
:103DC000B6FBF3F36426B3FBF6F357436E68B60015
:103DD000B7FBF6F602FB08F86F68BF00B8FBF7F711
:103DE0005FF0640CB7FBFCF701FB17663601323657
:103DF0006427B6FBF7F616F0F00616EB031602FB87
:103E000009F96B689B00B9FBF3F302FB00F26868E9
:103E10008000B2FBF0F06422B0FBF2F001FB103145
:103E2000080132306421B0FBF1F010F00F00861968
:103E3000286886604CE001F09AFF060001F097FFC9
:103E4000070001F094FF804601F091FF814601F0E8
:103E50008EFF6421192256436B689B00B6FBF3F377
:103E60006426B3FBF6F357436E68B600B7FBF6F66D
:103E700002FB08F86F68BF00B8FBF7F75FF0640C4F
:103E8000B7FBFCF701FB1766360132366427B6FB39
:103E9000F7F616F0F00616EB031602FB09F96B684D
:103EA0009B00B9FBF3F302FB00F268688000B2FBF1
:103EB000F0F06422B0FBF2F001FB10310801323067
:103EC0006421B0FBF1F010F00F00861928688660BD
:103ED000BDE8F183F3E9FFFF0038014010B50400AD
:103EE000002C01D1012014E094F83D00002805D1F8
:103EF000002084F83C00200001F066FA022084F8DB
:103F00003D00211D206800F0E4F9012084F83D0007
:103F1000002010BD01000868C06850F001000A6868
:103F2000D0600868006850F001000A681060002046
:103F3000704710B50400002C01D1012014E094F862
:103F40003D00002805D1002084F83C00200001F04D
:103F500059FF022084F83D00211D206800F0B9F9C6
:103F6000012084F83D00002010BD10B50400206839
:103F7000006980071AD52068C068800716D57FF0D1
:103F8000020021680861012020772068806910F014
:103F9000030F03D0200001F036FF05E0200001F000
:103FA00033FF200001F031FF0020207720680069F6
:103FB00040071AD52068C068400716D57FF0040076
:103FC00021680861022020772068806910F4407F12
:103FD00003D0200001F017FF05E0200001F014FFDE
:103FE000200001F012FF0020207720680069000700
:103FF0001AD52068C068000716D57FF00800216830
:104000000861042020772068C06910F0030F03D0F6
:10401000200001F0F8FE05E0200001F0F5FE200090
:1040200001F0F3FE0020207720680069C0061AD551
:104030002068C068C00616D57FF0100021680861AE
:10404000082020772068C06910F4407F03D020004A
:1040500001F0D9FE05E0200001F0D6FE200001F0BD
:10406000D4FE0020207720680069C0070AD52068A8
:10407000C068C00706D57FF00100216808612000F4
:10408000FDF790FD2068006900060AD52068C06829
:10409000000606D57FF0800021680861200001F04D
:1040A000B5FE2068006940060AD52068C068400651
:1040B00006D57FF0400021680861200001F0A7FECE
:1040C0002068006980060AD52068C068800606D589
:1040D0007FF0200021680861200001F099FE10BDEA
:1040E00070B505000E00140095F83C00012801D1C0
:1040F00002205FE0012085F83C00022085F83D00A9
:10410000002C12D1F36872683168286800F029F930
:104110002868806930F00C00296888612868816906
:10412000B0680143286881613DE0042C13D1F36835
:1041300072683168286800F06BF92868806930F48B
:1041400040602968886128688069B16850EA012068
:104150002968886127E0082C12D1F36872683168F9
:10416000286800F08BF92868C06930F00C002968D5
:10417000C8612868C169B06801432868C16112E05C
:10418000F36872683168286800F098F92868C06997
:1041900030F440602968C8612868C069B16850EA95
:1041A00001202968C861012085F83D00002085F8BC
:1041B0003C00002070BD70B504000D00002194F893
:1041C0003C00012801D1022082E0012084F83C005B
:1041D000022084F83D002068866836F0770636F4C1
:1041E0007F46206886602868002856D0102859D05D
:1041F00020285CD030285FD0402844D050282ED0D2
:10420000602836D070280DD0B0F5805F03D0B0F5AF
:10421000005F17D055E020688068C008C0002168A2
:1042200088604EE0EB686A68A968206800F074F95D
:104230002068806830F0770050F077000600206832
:1042400086603EE0EB686A68A968206800F064F95F
:104250002068806850F480402168886031E0EA6816
:104260006968206800F0C0F85021206800F047F924
:1042700027E0EA686968206800F0EBF860212068B0
:1042800000F03DF91DE0EA686968206800F0ACF8CC
:104290004021206800F033F913E00021206800F08D
:1042A0002EF90EE01021206800F029F909E0202104
:1042B000206800F024F904E03021206800F01FF9A4
:1042C000FFE7012084F83D00002084F83C00002036
:1042D00070BD10B400220468DFF8F830984212D0A4
:1042E000DFF8F42090420ED0B0F1804F0BD0DFF811
:1042F000EC20904207D0DFF8E820904203D0DFF8AE
:10430000E420904203D134F070044A681443984288
:104310000FD0DFF8C42090420BD0B0F1804F08D00E
:104320002E4A904205D02E4A904202D02D4A904209
:1043300003D134F44074CA68144334F080044A69E9
:10434000144304608A68C2620A688262984202D09A
:10435000214A904201D10A6902630122426110BCE4
:104360007047F0B400240027056A6D086D000562EF
:104370008569066ADFF85CC060450ED0164CA04225
:104380000BD0B0F1804F08D0144CA04205D0144C93
:10439000A04202D0134CA04201D1012400E000242D
:1043A000E4B2002C03D0AD08AD00154301E055F098
:1043B000010535F0F0051C0114F0F004254336F03A
:1043C0000A0611F00A04264385610662F0BC7047B4
:1043D00000000000002C01400034014000040040B7
:1043E00000080040000C004070B400230025066A5D
:1043F000046A640864000462846934F0F00454EAD6
:10440000021436F00A060E438461066270BC7047DF
:10441000F0B400240026056A35F0100505628569B0
:10442000076A35F4407555EA022535F470455FEAB0
:10443000033C1CF4704C5CEA050537F0A0075FEA0A
:10444000011C1CF0A00C5CEA070785610762F0BC48
:10445000704770B400230025046A34F0100404622D
:104460008469066A34F4704454EA023436F0A006D3
:1044700056EA01168461066270BC7047F0B40024ED
:104480000026056A35F480750562C569076AAD08BE
:10449000AD00154335F0F0055FEA031C1CF0F00C8D
:1044A0005CEA050537F400775FEA012C1CF4007C18
:1044B0005CEA0707C5610762F0BC7047F0B40024EE
:1044C0000026056A35F480550562C569076A35F42A
:1044D000407555EA022535F470455FEA033C1CF44B
:1044E000704C5CEA050537F400575FEA013C1CF4A8
:1044F000005C5CEA0707C5610762F0BC704710B456
:104500000022836833F070030C00A4B254F0070457
:104510002343836010BC704770B40024856835F471
:104520007F4552EA010656EA03263543856070BC92
:10453000704755001B48704770B45368D418042B5B
:1045400009DA41B1057804F8015B10F8016B16B186
:104550005B1C491EF3E7536070BC704738B51446C6
:104560001D4661B1FFF7E8FF61686A6B204690471E
:104570006FF00102811A02D0491E01D001E003E070
:1045800005E00021616032BD6FF0010032BD4FF0E7
:10459000FF3032BDDA6B1047024BDFE7014BF9E722
:1045A0000148704740000020080000200278C9B28E
:1045B0008A421AB11CBF10F8012FF9E718BF00207A
:1045C0007047000080B500B906A005490B681BB113
:1045D00022220021984701E001F01BFC222002BDAD
:1045E000F4040020636F6E73747261696E742068E6
:1045F000616E646C65723A20626164206D657373EC
:104600006167650000F10103810704D010F8011B08
:10461000820781B1FAD10268A2F10131914311F010
:10462000803104BF50F8042FF6E709BAB1FA81F1DE
:1046300000EBD100401CC01A70470000C9B28307CC
:1046400006D0521E22D310F8013B9942F7D11FE049
:10465000083A13D302F1040241EA012141EA01417F
:1046600050F8043B121F21BF4B40A3F1013C2CEA40
:10467000030C1CF0803FF3D0C9B2001F083210F8C1
:10468000013B521E28BF91EA030FF8D818BF012042
:10469000401E704780B5FFF74DFF006C02BD000063
:1046A000BBBBE1B1B2F5803F80F07E80022A1ED90B
:1046B0008C46B1FBF2F102FB11C31B0443EA104329
:1046C000B3FBF2FC02FB1C3380B240EA0343B3FBB2
:1046D000F2F002FB103240EA0C4000237047022A3D
:1046E00005D98446B0FBF2F002FB10C270474AB114
:1046F00005D100F0010249085FEA3000704700224E
:104700000023704701F088BB0B000200002100204D
:104710007047904271EB030CF6D3B3F5803F2FD274
:10472000F0B5B3FA83F7B1FA81F4A7F10F0E3D1B90
:104730005340CEF1200602FA0EF2F3415340B5F198
:104740000F0746D80F3C2C444140C4F12006A0403E
:10475000F1414140B1FBF3F603FB1611A2FB064504
:10476000001BA94102D2761E8018594180EA01023D
:1047700021FA0EF362FA0EF200215A403046F0BDE3
:1047800030B4B1FBF3FC03FB1C11A2FB0C45001B76
:10479000A94103D2ACF1010C8018594130BC02464A
:1047A0000B46604600217047B2F1807F65D3F0B5BB
:1047B000B2FA82F7B1FA81F4C7F10F063D1B22FA73
:1047C00006F307F1110EF24120355A40B5F10F07FB
:1047D000B8D94140C4F12006A040F1414140B1FBAD
:1047E000F3FC03FB1C11A2FB0C45001BA94103D2E7
:1047F000BCF1010C801859410F2F12D30F3FC90390
:1048000041EA5041B1FBF3F603FB1611A2FB06454A
:10481000D4EBC030A94102D2761E8018594146EA35
:10482000CC3C07B34140C7F12006B840F1414140BC
:10483000B1FBF3F603FB1611A2FB0645001BA941D1
:1048400002D2761E8018594180EA010221FA0EF345
:10485000C7F1200462FA0EF20CFA07F05A402CFA63
:1048600004F13043F0BD80EA010221FA0EF3002189
:1048700062FA0EF260465A40F0BD8C46B1FBF2F18E
:1048800002FB11C31B0243EA1063B3FBF2FC02FB01
:104890001C331B024CEA002043EA1063B3FBF2FC1A
:1048A00002FB1C331B024CEA002043EA1063B3FBFB
:1048B000F2FC02FB1C331B024CEA002043EA1063AB
:1048C000B3FBF2FC02FB1C324CEA002000237047D1
:1048D000B0B581EA030C0CF0004C40F2FF7515EA0C
:1048E00011541DBF15EA1357AC42AF4239E0E41929
:1048F00023EA455343F48013C90241F0004141EAE1
:10490000505EC7021100A7FB020200284FF0000012
:10491000EEFB01204FF00001E3FB072118BF42F03E
:104920000102401800214941E3FB0E01A4F5806417
:104930000F0302D252004041494154F101046CDDA1
:10494000470872F1004250F1000051EB0451A1F50B
:1049500080115CBF41EA0C01B0BD4CEA055100205A
:10496000B0BD05EA1357AC4214BFAF4241E050EA74
:10497000410E1CBF52EA430E02E061460020B0BD6A
:1049800024423C441BD15FEA070EF6D0090302BF64
:1049900001460020AEF1140EB1FA81F7AEEB070428
:1049A00001FA07FE0C37C7F1200100FA07F7C840EB
:1049B0004EEA000E23EA455343F48013A2E733F096
:1049C0000043B3FA83F704BFB2FA82FE77440B3F89
:1049D000E41BB7F1200E2FBF02FA0EF3BB40C7F164
:1049E000200E22FA0EFE38BF43EA0E03BA40641CC2
:1049F00082E750EA410E14BF52EA430E6FF0000105
:104A00004FF4001717EB430F8ABF194617EB410FFE
:104A1000B5E74CEA05510020B0BDD4F10104B4F172
:104A200020070FDAC4F12007520828BF42F0010224
:104A300010FA07F501FA07F7E1BF2A43E0403843CF
:104A4000E1400FE0352C98DCC7F1200452EA400227
:104A500020FA07F218BF42F0010231FA07F0A14034
:104A60000A43002172F1004250F1000051EB0C01A9
:104A7000B0BD000010B5144600F002F8226010BD71
:104A8000C1F30A5343B14A0012F5001F28D2A3F222
:104A9000FE32A1EB0251704750EA410C20D001F0E8
:104AA000004C31EA0C01B1FA81F204BFB0FA80F394
:104AB000D2180B3AB2F120032CBF00FA03F1914057
:104AC00041EA0C013EBFC2F1200C20FA0CF319435D
:104AD0009040524240F2FD33D21A01EB035170472D
:104AE000002270474FF4001C1CEB410F94BF1CEBDD
:104AF000430F09E041EA030C50EA4C0C52EA0C0C5B
:104B000003D2994208BF9042704714BF8B42824241
:104B1000704700004FF4001C1CEB410F94BF1CEBCE
:104B2000430F09E041EA030C50EA4C0C52EA0C0C2A
:104B300003D28B4208BF8242704714BF9942904211
:104B400070470000124254D440F2FF7C1CEA11531B
:104B50000FD0634531D09B1863453CBF01EB025138
:104B6000704701F0004141EA0C510020AFF3008092
:104B7000704750EA410320D001F0004C91EA0C014B
:104B80001CD0B1FA81F30B3B9A420DD9D21A99404D
:104B900051EA0C01C3F1200C20FA0CFC614498404E
:104BA000531C40F2FF7CD7E7914041EA0C01C2F16F
:104BB000200C20FA0CF3194390407047B0FA80F3B0
:104BC0001533202BE0D3202AEED3203A203B9A4203
:104BD00009D9D21A00FA03F141EA0C010020531C52
:104BE00040F2FF7CB8E700FA02F141EA0C01002034
:104BF0007047524240F2FF7C1CEA11530DD06345CE
:104C0000DBD0B2EB030C3CBFA1EB025170470CF1BF
:104C1000010221EA035141F4801150EA410CCCD049
:104C200001F0004C352A27DC30B481EA0C01B2F1E6
:104C3000200309DAC2F12003044601FA03F5D0404B
:104C40002843D1409C400CE0C3F12002450020FAEB
:104C500003F418BF44F0010421FA03F091400C431F
:104C6000002174F1004550F1000051EB0C01244289
:104C700030BC7FF47BAF70476146002076E70000D0
:104C8000C1F30A5340F2FE329B1A14DDD3F1200324
:104C90004FEAE17208DDC90241EA505141F000409B
:104CA000D84080185040704703F2E13010B1D24331
:104CB00082F000407047002070470000C11768B1C3
:104CC0004840401AB0FA80F29040D21CC907C2F5A1
:104CD000846241EA025202EBD02140057047000095
:104CE00070B44FF0004591EA030F41F19F806B4093
:104CF000841A71EB030603D2001BB14112197341F0
:104D00004FF4001C1CEB410F34BF7CEB430442E02A
:104D10000C0DA4EB1356352E4FDC45EAC323DB0AFA
:104D200045EAC121C912B6F120050DDD63FA05F689
:104D3000EB4086EA0305124218BF45F00105C01892
:104D400051F100010CD213E062FA06F5F240554031
:104D5000F3415A40B340F3405A408018594107D3B9
:104D600049085FEA30005FEA350528BF45F00105D4
:104D700001F58011420875F1004250F1000041EB4D
:104D800004514E0016F5001F70BC38BF704700205C
:104D9000090D090570471CEB410F10D252EA43067A
:104DA0000BD0BCEB410F05D80C0DAB43661E342E67
:104DB000B6DD02E0AB438018594170BC704770BC4F
:104DC00070470000F0B540F2FF7581EA030C0CF06B
:104DD000004C15EA11541DBF15EA1357AC42AF42FF
:104DE000E5E0BC41C1F31301C3F31303801A9941F9
:104DF00043F4801304D2641E400049418018594195
:104E0000C90241EA5051B1FBF3F603FB1611A2FBB4
:104E10000675D7EBC020A94102D2761E80185941F1
:104E2000C90241EA5051B1FBF3FE03FB1E11A2FB84
:104E30000E75D7EBC020A94103D2AEF1010E801848
:104E40005941890241EA9051760546EA8E2EB1FB1E
:104E5000F3F603FB1611A2FB0675D7EB8020A941E0
:104E600002D2761E80185941C90241EA50514EEAD9
:104E7000060EB1FBF3F603FB1611A2FB0675D7EB8A
:104E8000C020A94102D2761E80185941C90241EAC8
:104E90005051B1FBF3F703FB1711A2FB0735D3EB1E
:104EA000C020A94167F100070CBF004247F001078D
:104EB00066F3D5274FEA1E31B80814F5806412DD79
:104EC000BD0775F1004250EB0E5051EB045111F546
:104ED000801F5CBF41EA0C01F0BD4CF07F6141F0E6
:104EE000E0410020F0BDBD076D0840EA0E5041F4DE
:104EF0008011D4F10104B4F120060ADAC4F12006CD
:104F00000200E04001FA06F3E1401843B2401543C5
:104F10000EE0342C13DCC6F1200445EA40056D0890
:104F200020FA06F2154321FA06F0A1400D430021B4
:104F300075F1004250F1000051EB0C01F0BD002072
:104F40005FEA0C01F0BDCFB992185B41B3FA83F769
:104F500004BFB2FA82F6BF190B3FB7F120062FBF8C
:104F600002FA06F3BB40C7F1200622FA06F638BF64
:104F70003343BA401CB1E419641E33E77F4231F079
:104F80000041B1FA81F404BFB0FA80F6A4190B3CD9
:104F9000B4F120062FBF00FA06F1A140C4F12006AB
:104FA00020FA06F638BF3143A0403C1B1AE7AC425A
:104FB0001ABF05EA1357AF4212E050EA41061CBF80
:104FC00052EA4306BFE750EA4107304661461CBF3C
:104FD00041EA0551F0BD52EA430C08BFC143F0BDA0
:104FE00000204FF4001616EB410F98BF16EB430F4D
:104FF00008BF16EB410F24BFC14305E016EB430F7A
:105000000CBF61464CEA0551F0BD0000400D491847
:1050100040EA81200CD2490DA1F58061491C40F085
:10502000004005DBD1F11F0154BFC840C0177047D5
:1050300000207047014648B1B0FA80F18840C91C91
:10504000C1F58461090501EBD021400570470000DE
:105050002DE9F84702000B0000250026002100275B
:105060005FF000085FF0000EBEF1100F80F00D81C0
:10507000012010FA0EF00500186828400600AE4224
:1050800040F000815868002831D0012820D0022843
:1050900025D003283CD011281DD0122823D0DFF8BA
:1050A0002CC2604523D0DFF828C260451FD0DFF84E
:1050B00024C260451BD0DFF820C2604517D0DFF85E
:1050C0001CC2604513D0DFF818C260450FD022E043
:1050D000D86807001FE0D868001D07001BE0D868EB
:1050E0000830070017E0D8680C30070013E0986814
:1050F000002802D10420070009E09868012803D1A4
:1051000008200700156102E008200700556102E051
:1051100000200700FFE7B6F5807F01D2140000E011
:10512000141DB6F5807F02D25FEA8E0803E0BEF15F
:1051300008085FEA88085FF00F09D4F800C019FA80
:1051400008F03CEA000C17FA08F050EA0C0CC4F81E
:1051500000C05868C00040F195806248D0F800C097
:105160005CF0010CC0F800C0006810F00100009075
:105170000098DFF874C1704680085CF820A01EF02B
:105180000300C0B2800019FA00F93AEA090A574848
:10519000824202D15FF000091FE05548824202D1ED
:1051A0005FF0010919E05348824202D15FF0020921
:1051B00013E05148824202D15FF003090DE04F48ED
:1051C000824202D15FF0040907E04D48824202D1D9
:1051D0005FF0050901E05FF006091EF00300C0B2B0
:1051E000800019FA00F9514659EA01017046800819
:1051F0004CF820105868C00307D54248D0F800C0CA
:1052000056EA0C0CC0F800C006E03E48D0F800C0DA
:105210003CEA060CC0F800C05868800307D53A483D
:10522000D0F800C056EA0C0CC0F800C006E03648C2
:10523000D0F800C03CEA060CC0F800C05868C002B4
:1052400007D53248D0F800C056EA0C0CC0F800C0B0
:1052500006E02E48D0F800C03CEA060CC0F800C0BA
:105260005868800207D52A48D0F800C056EA0C0CCE
:10527000C0F800C006E02648D0F800C03CEA060CA2
:10528000C0F800C01EF1010EEEE6BDE8F187020095
:1052900090680B009BB2184201D0012000E0002072
:1052A000C0B270471300DBB2002B03D00B009BB2DF
:1052B000036103E00B009BB21B0403617047C368EA
:1052C0000A0092B25340C360704700000000111002
:1052D0000000121000002110000022100000311008
:1052E0000000321018100240080001400008014080
:1052F000000C014000100140001401400018014062
:10530000001C014000040140040401400804014065
:105310000C04014070B5040000F042F905002600BD
:1053200016F1010F02D004480078861900F038F910
:10533000401BB042FAD370BDD000002081B08F482E
:10534000016851F001010160006810F00100009057
:1053500000988B48016851F080510160006810F09E
:105360008050009000988749086830F0E06050F065
:105370000070086001B0704718B585B0040001A83E
:10538000102100F009FE20687F4988421AD17B482D
:10539000016851F400710160016811F4007100911D
:1053A0000099016851F004010160006810F00400E8
:1053B00000900098012001900320029001A97348F9
:1053C000FFF746FE06B010BD18B585B0040001A871
:1053D000102100F0E1FD2068B0F1804F2ED1684827
:1053E000016851F001010160006810F001000090B7
:1053F00000986248016851F008010160006810F0EF
:1054000008000090009808200190002002900020E1
:10541000039001A95E48FFF71BFE5A49086830F463
:10542000407050F0E06050F480700860002200216D
:105430001C20FEF7ADF91C20FEF7BFF906B010BD29
:1054400030B585B004006846102100F0A5FD206845
:10545000504988422AD14948016851F4804101608D
:10546000016811F4804104910499016851F004012C
:105470000160006810F00400049004984FF400707C
:1054800000900220019003200390404D69462800BF
:10549000FFF7DEFD4FF480600090002001900020B7
:1054A000029069462800FFF7D3FD64E020683A497E
:1054B000884231D13248016851F4003101600068FE
:1054C00010F40030049004982C48016851F0040155
:1054D0000160006810F0040004900498042000901B
:1054E0000220019003200390284D69462800FFF711
:1054F000AFFD082000900020019000200290694636
:105500002800FFF7A5FD002200212620FEF740F924
:105510002620FEF752F92EE02068204988422AD141
:105520001748016851F480210160006810F4802060
:10553000049004981148016851F008010160006866
:1055400010F00800049004984FF48060009002204E
:105550000190032003900E4D69462800FFF778FD67
:105560004FF40060009000200190002002906946F6
:105570002800FFF76DFD05B030BD00001810024097
:105580001C100240040001400024014000080140BA
:10559000000C014000380140004400400048004039
:1055A00001480068704700BFF004002038B50400CF
:1055B000002594F82100022804D00420A0630120D3
:1055C0000500CFE02068006830F00E002168086018
:1055D0002068006840084000216808602068DFF803
:1055E0009011884259D32068DFF88811884201D190
:1055F00001204EE02068DFF88011884201D11020A0
:1056000047E02068DFF87411884202D14FF48070BF
:105610003FE02068DFF86811884202D14FF48050E3
:1056200037E02068DFF85C11884202D15FF48030F7
:105630002FE02068DFF85011884202D15FF480101B
:1056400027E02068DFF84411884202D15FF08070C3
:105650001FE02068DFF81411884201D1012018E012
:105660002068DFF82C11884201D1102011E0206859
:10567000DFF82011884202D14FF4807009E02068E1
:10568000DFF81411884202D14FF4805001E05FF43A
:105690008030DFF80811086058E02068DFF8D41087
:1056A000884201D101204EE02068DFF8CC1088420A
:1056B00001D1102047E02068DFF8C010884202D1F5
:1056C0004FF480703FE02068DFF8B410884202D1C8
:1056D0004FF4805037E02068DFF8A810884202D1EC
:1056E0005FF480302FE02068DFF89C10884202D100
:1056F0005FF4801027E02068DFF89010884202D124
:105700005FF080701FE02068DFF86010884201D1F0
:10571000012018E02068DFF87810884201D11020BD
:1057200011E02068DFF86C10884202D14FF48070DD
:1057300009E02068DFF86010884202D14FF4805001
:1057400001E05FF48030DFF858100860012084F831
:105750002100002084F82000606B002802D0200087
:10576000616B88472800C0B232BD000008040240C7
:1057700081000240080002401C000240300002404C
:1057800044000240580002406C0002408000024089
:105790001C0402403004024044040240040402405D
:1057A00004000240704770472DE9F84304000025CB
:1057B0002078C0076BD5DFF80C06016811F00C01EA
:1057C000042907D0016811F00C0108290CD10068E8
:1057D000C00309D5DFF8E8050068800357D5606885
:1057E000002854D10120BDE16068B0F5803F06D1AA
:1057F000DFF8CC05016851F48031016026E0606873
:1058000000280AD1DFF8B805016831F48031016061
:10581000016831F48021016018E06068B0F5A02FC4
:105820000AD1DFF89C05016851F48021016001680C
:1058300051F48031016009E0DFF88405016831F43A
:1058400080310160016831F48021016060680028C6
:105850000ED0FFF7A5FE0500DFF8640500688003A1
:1058600015D4FFF79DFE401B6528F5D3032079E191
:10587000FFF796FE0500DFF848050068800306D5AF
:10588000FFF78EFE401B6528F5D303206AE12078E0
:10589000800750D5DFF82C05016811F00C0F07D0F8
:1058A000016811F00C01082914D10068C00311D45B
:1058B000DFF80C050168890704D52169012901D0A9
:1058C00001204FE1016831F0F801626951EAC2013B
:1058D000016030E0206900281AD00120DFF8F414BC
:1058E0000860FFF75DFE0500DFF8D4040168890752
:1058F00006D4FFF755FE401B0328F5D3032031E102
:10590000016831F0F801626951EAC201016012E0F8
:105910000020DFF8C0140860FFF742FE0500DFF842
:10592000A0040068800706D5FFF73AFE401B032855
:10593000F5D3032016E1207800072CD5A0690028B4
:1059400016D00120DFF890140860FFF729FE05004B
:10595000DFF87C040068800706D4FFF721FE401BB7
:105960000328F5D30320FDE0012000F016FA12E031
:105970000020DFF864140860FFF712FE0500DFF86E
:1059800050040068800706D5FFF70AFE401B032875
:10599000F5D30320E6E02078400740F18880002618
:1059A000DFF838743868C0000AD4386850F0805086
:1059B0003860386810F08050009000980120060090
:1059C000DFF81C84D8F80000C00513D4D8F8000014
:1059D00050F48070C8F80000FFF7E2FD0500D8F829
:1059E0000000C00506D4FFF7DBFD401B6528F6D399
:1059F0000320B7E0E068012806D1DFF8E80301687A
:105A000051F00101016025E0E06800280AD1DFF8CB
:105A1000D4030168490849000160016831F00401BC
:105A2000016017E0E06805280AD1DFF8B8030168D3
:105A300051F004010160016851F00101016009E0C9
:105A4000DFF8A0030168490849000160016831F0EE
:105A500004010160E068002810D0FFF7A1FD0500F7
:105A6000DFF880030068800719D4FFF799FD401B19
:105A700041F289318842F3D3032073E0FFF790FDB0
:105A80000500DFF860030068800708D5FFF788FD90
:105A9000401B41F289318842F3D3032062E0300099
:105AA000C0B2012803D1386830F080503860E06916
:105AB000002856D0DFF80C73386810F00C00082866
:105AC0004DD0E069022837D1DFF81C930020C9F8D7
:105AD0000000FFF765FD0600DFF8E482D8F800005B
